:100000000C942A000C9414010C943C000C943C00B9
:100010000C943C000C943C000C943C000C943C0070
:100020000C943C000C943C000C943C000C943C0060
:100030000C943C000C943C000C943C000C943C0050
:100040000C943C000C943C000C943C000C943C0040
:100050000C943C0011241FBECFE5D8E0DEBFCDBF1D
:1000600020E0A0E6B0E001C01D92A236B207E1F7A1
:100070000E944B010C9407030C94000060E081E4A3
:100080000E943C0161E081E40E943C0162E081E465
:100090000E943C0160E082E40E943C0161E082E455
:1000A0000E943C0162E082E40E943C0162E084E440
:1000B0000E9438010E94CC020895CF93DF9381E023
:1000C000809360008093610060E081E40E944001C1
:1000D0000E94F50260E081E40E9444010E94F00267
:1000E000C0E0D0E00BC061E081E40E94480108B6A6
:1000F00006FEF9CF88B7806488BF2196C431D10548
:10010000B0F361E081E40E94440115BC10926100EB
:1001100062E081E40E9440010E94F50262E081E415
:100120000E944401DF91CF910895CF93DF93109205
:10013000600080916100882319F0813061F041C036
:1001400060E082E40E94400162E081E40E9440019C
:100150000E94DE0236C062E082E40E9440010E94FA
:10016000D902C0E0D0E00FC061E081E40E94480104
:1001700061E082E40E94480108B600FEF5CF88B72E
:10018000816088BF2196C431D105B0F361E081E47C
:100190000E94440161E082E40E94440113BE62E0D7
:1001A00082E40E94440160E081E40E94440162E034
:1001B00081E40E94400160E082E40E9440010E94CC
:1001C000DE0262E081E40E9444010E94D902C0E0A4
:1001D000D0E00FC061E081E40E94480161E082E468
:1001E0000E94480108B600FEF5CF88B7816088BF3D
:1001F0002196C431D105B0F361E081E40E9444014D
:1002000061E082E40E94440113BE60E082E40E9447
:10021000440162E082E40E94400160E081E40E94C7
:100220004001DF91CF9108951F920F920FB60F9268
:1002300011242F933F934F935F936F937F938F93EB
:100240009F93AF93BF93EF93FF930E949500FF910D
:10025000EF91BF91AF919F918F917F916F915F913E
:100260004F913F912F910F900FBE0F901F901895B7
:1002700040E00E945001089541E00E94500108951D
:1002800041E00E94CA01089540E00E94CA01089519
:100290000E94A80208950E943E000E945D00FDCFCA
:1002A000823431F118F4813439F008958334E1F166
:1002B000843409F454C0089541110CC02AB381E07C
:1002C00090E002C0880F991F6A95E2F7809582231B
:1002D0008ABB0895413009F05CC02AB381E090E008
:1002E00002C0880F991F6A95E2F7822B8ABB089596
:1002F00041110CC027B381E090E002C0880F991F24
:100300006A95E2F78095822387BB0895413009F012
:1003100040C027B381E090E002C0880F991F6A9522
:10032000E2F7822B87BB089541110CC024B381E012
:1003300090E002C0880F991F6A95E2F780958223AA
:1003400084BB0895413029F524B381E090E002C0D8
:10035000880F991F6A95E2F7822B84BB089541119B
:100360000CC021B381E090E002C0880F991F6A950C
:10037000E2F78095822381BB0895413051F421B387
:1003800081E090E002C0880F991F6A95E2F7822B06
:1003900081BB0895823431F118F4813439F0089525
:1003A0008334E1F1843409F454C0089541110CC040
:1003B0002BB381E090E002C0880F991F6A95E2F7A5
:1003C000809582238BBB0895413009F05CC02BB32C
:1003D00081E090E002C0880F991F6A95E2F7822BB6
:1003E0008BBB089541110CC028B381E090E002C09E
:1003F000880F991F6A95E2F78095822388BB08953C
:10040000413009F040C028B381E090E002C0880F7D
:10041000991F6A95E2F7822B88BB089541110CC0A1
:1004200025B381E090E002C0880F991F6A95E2F73A
:100430008095822385BB0895413029F525B381E05D
:1004400090E002C0880F991F6A95E2F7822B85BB66
:10045000089541110CC022B381E090E002C0880FE2
:10046000991F6A95E2F78095822382BB08954130F7
:1004700051F422B381E090E002C0880F991F6A9581
:10048000E2F7822B82BB0895823401F118F48134A3
:1004900039F00895833481F1843409F443C0089518
:1004A00079B381E090E09C01062E02C0220F331F39
:1004B0000A94E2F7872F90E08223932302C0959558
:1004C00087956A95E2F7FA018083089576B381E013
:1004D00090E09C01062E02C0220F331F0A94E2F71F
:1004E000872F90E08223932302C0959587956A9584
:1004F000E2F7FA018083089573B381E090E09C01F4
:10050000062E02C0220F331F0A94E2F7872F90E0D5
:100510008223932302C0959587956A95E2F7FA01A5
:100520008083089570B381E090E09C01062E02C0A4
:10053000220F331F0A94E2F7872F90E08223932340
:1005400002C0959587956A95E2F7FA018083089530
:100550000F931F93CF93DF931F92CDB7DEB7182F62
:10056000062FAE014F5F5F4F0E94440289818111C7
:1005700006C041E0602F812F0E94CA0107C0813070
:1005800029F440E0602F812F0E94CA010F90DF9173
:10059000CF911F910F9108958FB780688FBF85B756
:1005A000816085BF85B7826085BF8BB780648BBF54
:1005B00008958CE082BF85E083BF08950E94D90230
:1005C00020E030E008C008B600FEFDCF88B78160AB
:1005D00088BF2F5F3F4F24313105A8F313BE089524
:1005E0008CE084BD85E085BD08950E94F00220E086
:1005F00030E008C008B606FEFDCF88B7806488BF2B
:100600002F5F3F4F24313105A8F315BC0895F894AE
:02061000FFCF1A
:00000001FF
