S01400004156525F41546D65676133322E7372656334
S11300000C942A000C9426010C943C000C943C00A3
S11300100C943C000C943C000C943C000C943C006C
S11300200C943C000C943C000C943C000C943C005C
S11300300C943C000C943C000C943C000C943C004C
S11300400C943C000C943C000C943C000C943C003C
S11300500C943C0011241FBECFE5D8E0DEBFCDBF19
S113006020E0A0E6B0E001C01D92A136B207E1F79E
S11300700E945D010C9419030C94000060E081E47B
S11300800E944E0161E081E40E944E0162E081E43D
S11300900E944E0160E082E40E944E0161E082E42D
S11300A00E944E0162E082E40E944E0162E084E418
S11300B00E944A010E94DE020895CF93DF9381E0FB
S11300C08093600060E081E40E9452010E94070373
S11300D060E081E40E9456010E940203C0E0D0E087
S11300E00BC061E081E40E945A0108B606FEF9CF14
S11300F088B7806488BF2196C431D105B0F361E02C
S113010081E40E94560115BC1092600060E081E415
S11301100E94560162E081E40E9452010E9407039A
S113012062E081E40E945601DF91CF910895CF935C
S1130130DF9380916000882319F0813061F041C021
S113014060E082E40E94520162E081E40E94520174
S11301500E94F00236C062E082E40E9452010E94D2
S1130160EB02C0E0D0E00FC061E081E40E945A01DC
S113017061E082E40E945A0108B600FEF5CF88B718
S1130180816088BF2196C431D105B0F361E081E478
S11301900E94560161E082E40E94560113BE62E0AF
S11301A082E40E94560160E081E40E94560162E00C
S11301B081E40E94520160E082E40E9452010E94A4
S11301C0F00262E081E40E9456010E94EB02C0E06A
S11301D0D0E00FC061E081E40E945A0161E082E452
S11301E00E945A0108B600FEF5CF88B7816088BF27
S11301F02196C431D105B0F361E081E40E94560137
S113020061E082E40E94560113BE60E082E40E9431
S1130210560162E082E40E94520160E081E40E949F
S113022052010E94F00262E082E40E945601809131
S11302306000811108C060E081E40E94560162E020
S113024081E40E945201DF91CF9108951F920F9291
S11302500FB60F9211242F933F934F935F936F9395
S11302607F938F939F93AF93BF93EF93FF930E94DA
S11302709700FF91EF91BF91AF919F918F917F91E3
S11302806F915F914F913F912F910F900FBE0F90FF
S11302901F90189540E00E946201089541E00E9479
S11302A06201089541E00E94DC01089540E00E944B
S11302B0DC0108950E94BA0208950E943E000E9443
S11302C05D00FDCF823431F118F4813439F00895A2
S11302D08334E1F1843409F454C0089541110CC00D
S11302E02AB381E090E002C0880F991F6A95E2F773
S11302F0809582238ABB0895413009F05CC02AB3FB
S113030081E090E002C0880F991F6A95E2F7822B82
S11303108ABB089541110CC027B381E090E002C06C
S1130320880F991F6A95E2F78095822387BB089509
S1130330413009F040C027B381E090E002C0880F4B
S1130340991F6A95E2F7822B87BB089541110CC06F
S113035024B381E090E002C0880F991F6A95E2F708
S11303608095822384BB0895413029F524B381E02C
S113037090E002C0880F991F6A95E2F7822B84BB34
S1130380089541110CC021B381E090E002C0880FB0
S1130390991F6A95E2F78095822381BB08954130C5
S11303A051F421B381E090E002C0880F991F6A954F
S11303B0E2F7822B81BB0895823431F118F4813441
S11303C039F008958334E1F1843409F454C0089574
S11303D041110CC02BB381E090E002C0880F991F3B
S11303E06A95E2F7809582238BBB0895413009F02A
S11303F05CC02BB381E090E002C0880F991F6A951E
S1130400E2F7822B8BBB089541110CC028B381E025
S113041090E002C0880F991F6A95E2F780958223C5
S113042088BB0895413009F040C028B381E090E0D2
S113043002C0880F991F6A95E2F7822B88BB089542
S113044041110CC025B381E090E002C0880F991FD0
S11304506A95E2F78095822385BB0895413029F59A
S113046025B381E090E002C0880F991F6A95E2F7F6
S1130470822B85BB089541110CC022B381E090E02A
S113048002C0880F991F6A95E2F78095822382BB88
S11304900895413051F422B381E090E002C0880F06
S11304A0991F6A95E2F7822B82BB0895823401F189
S11304B018F4813439F00895833481F1843409F4D3
S11304C043C0089579B381E090E09C01062E02C0F8
S11304D0220F331F0A94E2F7872F90E0822393239D
S11304E002C0959587956A95E2F7FA01808308958D
S11304F076B381E090E09C01062E02C0220F331FE8
S11305000A94E2F7872F90E08223932302C0959503
S113051087956A95E2F7FA018083089573B381E0C1
S113052090E09C01062E02C0220F331F0A94E2F7CA
S1130530872F90E08223932302C0959587956A952F
S1130540E2F7FA018083089570B381E090E09C01A2
S1130550062E02C0220F331F0A94E2F7872F90E081
S11305608223932302C0959587956A95E2F7FA0151
S1130570808308950F931F93CF93DF931F92CDB77A
S1130580DEB7182F062FAE014F5F5F4F0E94560251
S11305908981811106C041E0602F812F0E94DC0116
S11305A007C0813029F440E0602F812F0E94DC01D4
S11305B00F90DF91CF911F910F9108958FB78068AD
S11305C08FBF85B7816085BF85B7826085BF8BB7D4
S11305D080648BBF08958CE082BF85E083BF08955B
S11305E00E94EB0220E030E008C008B600FEFDCF18
S11305F088B7816088BF2F5F3F4F24313105A8F34E
S113060013BE08958CE084BD87E085BD08950E94E3
S1130610020320E030E008C008B606FEFDCF88B72C
S1130620806488BF2F5F3F4F24313105A8F315BC88
S10906300895F894FFCFC9
S9030000FC
